{
  "_format": "hh-sol-artifact-1",
  "contractName": "Twitter",
  "sourceName": "contracts/Twitter.sol",
  "abi": [
    {
      "inputs": [
        {
          "internalType": "string",
          "name": "ipfsHash",
          "type": "string"
        }
      ],
      "name": "addTweet",
      "outputs": [
        {
          "internalType": "bytes32",
          "name": "",
          "type": "bytes32"
        }
      ],
      "stateMutability": "nonpayable",
      "type": "function"
    },
    {
      "inputs": [],
      "name": "getAllLightweightTweets",
      "outputs": [
        {
          "internalType": "string[]",
          "name": "",
          "type": "string[]"
        }
      ],
      "stateMutability": "view",
      "type": "function"
    },
    {
      "inputs": [],
      "name": "getAllTweets",
      "outputs": [
        {
          "internalType": "bytes32[]",
          "name": "",
          "type": "bytes32[]"
        }
      ],
      "stateMutability": "view",
      "type": "function"
    },
    {
      "inputs": [
        {
          "internalType": "bytes32",
          "name": "tweetHash",
          "type": "bytes32"
        }
      ],
      "name": "getTweet",
      "outputs": [
        {
          "components": [
            {
              "internalType": "string",
              "name": "ipfsHash",
              "type": "string"
            },
            {
              "internalType": "address",
              "name": "author",
              "type": "address"
            }
          ],
          "internalType": "struct Twitter.Tweet",
          "name": "",
          "type": "tuple"
        }
      ],
      "stateMutability": "view",
      "type": "function"
    }
  ],
  "bytecode": "0x608060405234801561001057600080fd5b50610b7c806100206000396000f3fe608060405234801561001057600080fd5b506004361061004c5760003560e01c80630543182014610051578063532561351461008157806359ee12bc1461009f578063e02bfc13146100cf575b600080fd5b61006b600480360381019061006691906105c2565b6100ed565b604051610078919061089d565b60405180910390f35b610089610201565b604051610096919061083e565b60405180910390f35b6100b960048036038101906100b491906105eb565b610259565b6040516100c69190610882565b60405180910390f35b6100d7610399565b6040516100e49190610860565b60405180910390f35b6100f5610472565b60008083815260200190815260200160002060405180604001604052908160008201805461012290610a2c565b80601f016020809104026020016040519081016040528092919081815260200182805461014e90610a2c565b801561019b5780601f106101705761010080835404028352916020019161019b565b820191906000526020600020905b81548152906001019060200180831161017e57829003601f168201915b505050505081526020016001820160009054906101000a900473ffffffffffffffffffffffffffffffffffffffff1673ffffffffffffffffffffffffffffffffffffffff1673ffffffffffffffffffffffffffffffffffffffff16815250509050919050565b6060600180548060200260200160405190810160405280929190818152602001828054801561024f57602002820191906000526020600020905b81548152602001906001019080831161023b575b5050505050905090565b600080823360405160200161026f929190610816565b60405160208183030381529060405280519060200120905060018190806001815401808255809150506001900390600052602060002001600090919091909150556002839080600181540180825580915050600190039060005260206000200160009091909190915090805190602001906102eb9291906104a2565b5060405180604001604052808481526020013373ffffffffffffffffffffffffffffffffffffffff1681525060008083815260200190815260200160002060008201518160000190805190602001906103459291906104a2565b5060208201518160010160006101000a81548173ffffffffffffffffffffffffffffffffffffffff021916908373ffffffffffffffffffffffffffffffffffffffff16021790555090505080915050919050565b60606002805480602002602001604051908101604052809291908181526020016000905b828210156104695783829060005260206000200180546103dc90610a2c565b80601f016020809104026020016040519081016040528092919081815260200182805461040890610a2c565b80156104555780601f1061042a57610100808354040283529160200191610455565b820191906000526020600020905b81548152906001019060200180831161043857829003601f168201915b5050505050815260200190600101906103bd565b50505050905090565b604051806040016040528060608152602001600073ffffffffffffffffffffffffffffffffffffffff1681525090565b8280546104ae90610a2c565b90600052602060002090601f0160209004810192826104d05760008555610517565b82601f106104e957805160ff1916838001178555610517565b82800160010185558215610517579182015b828111156105165782518255916020019190600101906104fb565b5b5090506105249190610528565b5090565b5b80821115610541576000816000905550600101610529565b5090565b6000610558610553846108e4565b6108bf565b90508281526020810184848401111561057057600080fd5b61057b8482856109ea565b509392505050565b60008135905061059281610b2f565b92915050565b600082601f8301126105a957600080fd5b81356105b9848260208601610545565b91505092915050565b6000602082840312156105d457600080fd5b60006105e284828501610583565b91505092915050565b6000602082840312156105fd57600080fd5b600082013567ffffffffffffffff81111561061757600080fd5b61062384828501610598565b91505092915050565b60006106388383610751565b60208301905092915050565b6000610650838361076f565b905092915050565b610661816109ae565b82525050565b610678610673826109ae565b610a8f565b82525050565b600061068982610935565b6106938185610970565b935061069e83610915565b8060005b838110156106cf5781516106b6888261062c565b97506106c183610956565b9250506001810190506106a2565b5085935050505092915050565b60006106e782610940565b6106f18185610981565b93508360208202850161070385610925565b8060005b8581101561073f57848403895281516107208582610644565b945061072b83610963565b925060208a01995050600181019050610707565b50829750879550505050505092915050565b61075a816109c0565b82525050565b610769816109c0565b82525050565b600061077a8261094b565b6107848185610992565b93506107948185602086016109f9565b61079d81610b11565b840191505092915050565b60006107b38261094b565b6107bd81856109a3565b93506107cd8185602086016109f9565b80840191505092915050565b600060408301600083015184820360008601526107f6828261076f565b915050602083015161080b6020860182610658565b508091505092915050565b600061082282856107a8565b915061082e8284610667565b6014820191508190509392505050565b60006020820190508181036000830152610858818461067e565b905092915050565b6000602082019050818103600083015261087a81846106dc565b905092915050565b60006020820190506108976000830184610760565b92915050565b600060208201905081810360008301526108b781846107d9565b905092915050565b60006108c96108da565b90506108d58282610a5e565b919050565b6000604051905090565b600067ffffffffffffffff8211156108ff576108fe610ae2565b5b61090882610b11565b9050602081019050919050565b6000819050602082019050919050565b6000819050602082019050919050565b600081519050919050565b600081519050919050565b600081519050919050565b6000602082019050919050565b6000602082019050919050565b600082825260208201905092915050565b600082825260208201905092915050565b600082825260208201905092915050565b600081905092915050565b60006109b9826109ca565b9050919050565b6000819050919050565b600073ffffffffffffffffffffffffffffffffffffffff82169050919050565b82818337600083830152505050565b60005b83811015610a175780820151818401526020810190506109fc565b83811115610a26576000848401525b50505050565b60006002820490506001821680610a4457607f821691505b60208210811415610a5857610a57610ab3565b5b50919050565b610a6782610b11565b810181811067ffffffffffffffff82111715610a8657610a85610ae2565b5b80604052505050565b6000610a9a82610aa1565b9050919050565b6000610aac82610b22565b9050919050565b7f4e487b7100000000000000000000000000000000000000000000000000000000600052602260045260246000fd5b7f4e487b7100000000000000000000000000000000000000000000000000000000600052604160045260246000fd5b6000601f19601f8301169050919050565b60008160601b9050919050565b610b38816109c0565b8114610b4357600080fd5b5056fea264697066735822122096f66b4bc3f224ccc5d91c2e7c07d00b5a6e904f30d0e541f1d3a8ccffe320fa64736f6c63430008040033",
  "linkReferences": {},
  "deployedLinkReferences": {}
}